:1000000000800020BD010000C54100007D410000CE
:100010007D4100007D4100007D4100007D410000E8
:100020007D4100007D4100007D410000C541000090
:10003000C54100007D410000C54100006D41000048
:10004000C5410000C5410000C5410000C541000098
:10005000C5410000C5410000C5410000C541000088
:10006000C5410000C5410000C5410000C541000078
:10007000C5410000C5410000C5410000C541000068
:10008000C5410000C5410000C5410000C541000058
:10009000C5410000C5410000C5410000C541000048
:1000A00099100000C5410000C5410000C541000095
:1000B000C5410000C5410000C5410000C541000028
:1000C000C5410000C5410000C5410000C541000018
:1000D000C5410000C5410000C5410000C541000008
:1000E000C5410000C5410000C5410000C5410000F8
:1000F000C5410000AD5F0000C54100000967000078
:10010000C5410000856C0000C5410000C5410000EC
:10011000C5410000C5410000C5410000C5410000C7
:10012000C5410000C5410000C5410000C5410000B7
:10013000C5410000C5410000C5410000C5410000A7
:10014000C5410000C5410000C5410000C541000097
:10015000C5410000C5410000C5410000C541000087
:10016000C5410000C1470000C5410000C541000075
:10017000C5410000C5410000C5410000C541000067
:10018000C5410000C5410000C5410000C541000057
:10019000C5410000C5410000C5410000C541000047
:1001A000C5410000C5410000C5410000C541000037
:1001B000C5410000C54100002D560000574B4CF2D0
:1001C000205210B51A804DF628121A8000BF00BFC9
:1001D00003F0FCFF524B4FF010621A60514A9A60D4
:1001E000514ADA60A3F53043203B1A6812F480725A
:1001F00004D14E490A604FF4A8521A604C4B1A7849
:10020000110703D51A7842F008021A70494B4A4C7C
:100210004A482A221A704A4A00239918A14203D256
:10022000195899500433F8E7464B474900228B424E
:1002300002D243F8042BFAE74448454900235A58B0
:100240001A500433B3F5DE7FF9D1424B424A802184
:1002500003F8011B9342FBD1404B3C4A1A60404BD0
:100260008A221A70A3F5805324225A70A0221A7091
:100270009A799207FCD59A79D406FCD4394A9379B5
:1002800003F00C03082B374BF9D105221A714322D6
:100290005A719A799006FCD5324A9179314B4906C8
:1002A000FBD5314A4FF08171116005215160202248
:1002B0001A709A7902F00C020C2AFAD12B4B2C4AB4
:1002C0001A602C4B2C4A1A6000225A60072243F80D
:1002D000042C2A4AC3F80C2D62B604F02DF9134BF6
:1002E0001B68DA0705D5264804F0CAF8254B264ACC
:1002F0001A60264B1B785B0609D5224C224A2368DC
:10030000934204D11E4804F0BBF80023236007F099
:1003100097F903F061FF05F0C3FAFEE70E200540F0
:1003200030800440823F04000100002B14D00340C1
:1003300002D0074000E0074044E8FF1FE8840000C7
:1003400060DDFF1F44E8FF1F6808002000D8FF1F82
:100350000000000000E400E05FE400E008ED00E0E1
:1003600000500640004006404480044004800440A1
:10037000C010050014E000E03F190100000020203B
:100380004E5A8E581CE00340A5C3945A00F0074013
:10039000FFFFFFFFFFFFFFFFFFFFFFFFFFFFFFFF6D
:1003A000FFFFFFFFFFFFFFFFFFFFFFFFFFFFFFFF5D
:1003B000FFFFFFFFFFFFFFFFFFFFFFFFFFFFFFFF4D
:1003C000FFFFFFFFFFFFFFFFFFFFFFFFFFFFFFFF3D
:1003D000FFFFFFFFFFFFFFFFFFFFFFFFFFFFFFFF2D
:1003E000FFFFFFFFFFFFFFFFFFFFFFFFFFFFFFFF1D
:1003F000FFFFFFFFFFFFFFFFFFFFFFFFFFFFFFFF0D
:10040000FFFFFFFFFFFFFFFFFFFFFFFFDEF9FFFF23
:1004100010B5054C237833B9044B13B10448AFF33E
:1004200000800123237010BD44E8FF1F000000007E
:10043000E884000008B5064B1BB106480649AFF337
:1004400000800648036813B1054B03B1984708BD07
:1004500000000000E884000048E8FF1F44E8FF1F98
:1004600000000000F0B5184B184C194E002583B061
:100470001D801AE0336816485B689847294614487F
:1004800005F006FA336813495B6811480222984761
:10049000384607F001FC336802465B680C48394671
:1004A00098470B48013505F0A7F92046142101AA09
:1004B00003F0EAFB27460722074914340028D9D164
:1004C000284603B0F0BD00BF0605002060E8FF1F0E
:1004D00048060020308000002880000038B5144C09
:1004E0001449236805465B68132220469847204636
:1004F00005F082F9E8B203F011FA40B923680E4919
:100500005B6820461F229847204605F075F9FFF7E3
:10051000A9FF0146064805F0BBF9236804485B685B
:100520000649152298470248BDE8384005F064B9ED
:1005300048060020348000004880000068800000E9
:1005400070B51B4B1B4CC0EBC00203EB420223688F
:10055000518106460D465B6817490622204698479A
:100560003146204605F094F9236814495B680A2255
:10057000204698472946204605F08AF92368104905
:100580005B680222204698470E4B05EB850503EB7E
:100590008505284607F080FB236802462946204649
:1005A0005B6898472046BDE8704005F025B900BF5C
:1005B00064FCFF1F48060020808000008880000047
:1005C0003080000060E8FF1F38B50A4C0546202146
:1005D000204600F08DFE236820461B6812219847B4
:1005E0002368E9B21B68204698472046BDE838409A
:1005F00000F090BEE40100201149124A38B50546CA
:10060000114B51F82000114CC5EBC50103EB410320
:10061000B3F90A3003EB830102EB810101F08EFC98
:1006200023680B495B6820460D22984720462946DF
:1006300005F02EF92046BDE8384005F0DDB800BFD2
:1006400044DEFF1F60E8FF1F64FCFF1F4806002018
:10065000948000002DE9F0434FEAC008444CC0EB01
:1006600008077F00E519E35BAB8083B006460F20E7
:1006700003F004FDAB88E053C01A6B7B80B2E880C6
:10068000002B54D1E35F1E2B04DD012380B26B737A
:10069000030461D4C6EB080904EB490999F80C304E
:1006A000002B3DD0334B344D1B68019301990A2236
:1006B0000023284605F0B0F82B6830495B68022219
:1006C000284698472B682E495B681322284698478E
:1006D0002B6820211B68284698474021284605F0B2
:1006E000D7F82B6820211B68284698472B68254996
:1006F0005B681122284698472B6823495B680322D0
:1007000028469847B9F90210284605F0C1F828464E
:1007100005F072F83046FFF76FFF002389F80C30C0
:10072000C6EB080634F9160003B0BDE8F083012BD0
:10073000AED0022BAED1C6EB08035B00E218E35E3D
:10074000132B06DDB2F90630002BA3DD0123537312
:10075000A0E7002353739DE7C6EB08035B00E11895
:10076000E55A4D80022301204B730873E1E700BF77
:1007700064FCFF1F180500204806002030800000A0
:10078000BC800000A4800000B880000010B5104CB0
:100790002368002B1ADB00204121FFF7D1FE2368DC
:1007A000002B13DD01204C21FFF7CAFE2368012B2B
:1007B0000CDD02202521FFF7C3FE2368022B05DD97
:1007C00003202521BDE81040FFF7BABE10BD00BFD1
:1007D00040DEFF1F184B70B51E68184D002E17DD48
:1007E000174A29780023507B022814BF00240124D3
:1007F00004FA03F40CBF0020012098402143013388
:1008000021EA0001B34202F10E02C9B2EBD1297014
:100810000C4C2021204600F06BFD236820461B680D
:10082000132198472046297800F036FB2046BDE882
:10083000704000F06FBD00BF40DEFF1F60FCFF1F77
:1008400064FCFF1FE4010020002310B4104C41722F
:10085000026104600372C36041B1194600E002699D
:1008600042F82310427A01339A42F8DC094B1A68A5
:100870000AB90BE01A465369002BFBD150610023E3
:1008800043618380C3805DF8044B70471860F6E7CE
:10089000D8800000180600200021164B036010B419
:1008A00000F1280204240B46447202610172C16007
:1008B00000E0026942F82310427A01339342F8DBE8
:1008C0000D4B1A680AB913E01A465369002BFBD185
:1008D00050614FF480330022084942618280C28017
:1008E00001608361C361036243625DF8044B70473A
:1008F0001860EEE7D880000018060020688100002C
:100900000F490A6838B500230E4D0560044643724E
:1009100003610372C3600AB910E01A465369002BE1
:10092000FBD154610023084A63612046A380E38021
:10093000A361226001F0E4FA204638BD0860F1E7C7
:1009400018060020D88000008881000038B5194DB5
:10095000194C2B6819495B6812222846984728468B
:1009600004F04AFF204600F045FB2046202100F01D
:10097000BFFC236820461B6800219847236800219C
:100980001B6820469847204600F0C4FC20462021E2
:1009900000F0AEFC236820461B68012198472368BD
:1009A00020461B68002198472046BDE8384000F0EB
:1009B000B1BC00BF48060020E4010020E080000038
:1009C00070B51D4C1D4923680A225B682046984774
:1009D000204604F011FF0F20002103F069FD1220D2
:1009E000012103F065FD1320012103F061FD14498D
:1009F000144B08681A78C40442F0040109D58A42ED
:100A000007D0114D11484FF4A2764FF400742E60B8
:100A100004600B4819700068C00442F0050209D553
:100A2000914207D00A4C0B494FF4A2754FF4007065
:100A3000256008601A7070BD48060020F480000030
:100A40003C8004404406002014B0044004C004402C
:100A500018B0044008C0044010B50C4C0C49236881
:100A60000C225B6820469847204604F0C5FE0949E1
:100A7000094A46F2666343F2333088619061CB6184
:100A80000B624B62D3611362536210BD48060020B3
:100A90000081000020FEFF1FB4FFFF1F38B550216A
:100AA0001448154D154C04F0ABFC154A1549137844
:100AB000002BFCD00B789B07F9D028682368C31A59
:100AC000182BF4D9642003F01BFDFFF779FF0620F3
:100AD000FFF704FDFFF73AFFFFF7BEFFFFF756FEF3
:100AE000094800F005FD08484D21BDE8384000F0F8
:100AF0006DBD00BF0082FF1F1805002060080020A8
:100B0000FC0500201406002098FFFF1F10B50A4CBA
:100B10002068FFF759FD4FF49653013B7FF4FDAF7A
:100B20002068FFF797FDFFF755FE2368013303F0B8
:100B30000303236010BD00BF94FDFF1F2DE9F84F94
:100B4000DFF844B3A84CDFF844A3DFF84493A74F81
:100B5000DFF840835846FFF7D3FE2046FFF7D0FE6C
:100B6000A348FFF7CDFEA348FFF7CAFEA248FFF750
:100B7000C7FEA248FFF7C4FEA148FFF7C1FEA14887
:100B8000FFF7BEFE5046FFF787FE4846FFF784FE9C
:100B90009D48FFF781FE3846FFF77EFE00210A469A
:100BA0009A48FFF751FE994A994B1360104600F09E
:100BB00019FE9848FFF770FE9748FFF76DFE022177
:100BC00008F118024046FFF73FFE944BC8F800308A
:100BD000404601F079F8924A002502261046C2F8F4
:100BE00000B057601572D560567204F0EDFC8D4A66
:100BF0001046C2F800B0C2F8049015725672D56063
:100C000004F0E2FC884A4FF0030B104682E89000A3
:100C10001572D56082F809B004F0D6FC834A1046FC
:100C200082E81002157282F809B0D56004F0CCFC9D
:100C30007F4A6F4B15720124104682E88800D56008
:100C4000547204F0C1FC7B4A694B1572104682E86D
:100C500008025472D56004F0B7FC774A654B1572F0
:100C6000104682E888005572D56004F0ADFC734AE6
:100C7000604B1572104682E808025572D56004F088
:100C8000A3FC6F4A5C4B1572104682E8080456724A
:100C9000D56004F099FC6B4A574B136010465A4BD1
:100CA000536015725672D56004F08EFC664A534B41
:100CB0001572104682E8080482F809B0D56004F085
:100CC00083FC624A4D4B136010464F4B53601572C4
:100CD00082F809B0D56004F077FC5D4A484B157284
:100CE000104682E808045572D56004F06DFC594A3C
:100CF000434B13601046444B536015725572D560D8
:100D000004F062FC544A3F4B1572104682E8080416
:100D10005472D56004F058FC504A3A4B13601046A8
:100D2000394B536015725472D56004F04DFC4C4A37
:100D3000394B53601046C2F800A015725572D56049
:100D400004F042FC474A334B53601046C2F800900F
:100D500015725472D56004F037FC434A2A4B136075
:100D600010462C4B536015725572D56004F02CFC64
:100D70003E4A294B53601046176015725472D56075
:100D800004F022FC3A4A214B13601046224B536078
:100D900015725672D56004F017FC364A1B4B13606F
:100DA00010461C4B536014725672D56004F00CFC54
:100DB000314A184B1572104682E808015472D5600A
:100DC00004F002FC2D4A144B1572104682E808010B
:100DD0005572D56004F0F8FB294B2A4A1A600A22A2
:100DE0001A72BDE8F88F00BF58010020D4FCFF1F25
:100DF000F0000020BC0000205400002088000020EB
:100E0000ECFFFF1F20000020B4FFFF1F10FFFF1F9B
:100E10005881000068FEFF1FB8FDFF1F78810000A9
:100E200098FDFF1FA8FDFF1FC0FEFF1FF0FDFF1F65
:100E300000FEFF1F10FEFF1F38FFFF1F58FEFF1FA1
:100E400058FFFF1FA0FEFF1FB0FEFF1F0CFDFF1F7E
:100E5000D0FEFF1FE0FEFF1F54FDFF1FF0FEFF1F2F
:100E600000FFFF1F84FDFF1F28FFFF1F74FDFF1FF2
:100E700048FFFF1F68FFFF1F64FDFF1FA4FFFF1F48
:100E800098FFFF1F388100002401002020FEFF1F73
:100E90001CFDFF1F78FFFF1F10B40E4B1B7813B90A
:100EA0000D4B1B788BB10D4A1378202B07D80C4CB7
:100EB000581C1070E15401205DF8044B7047012369
:100EC00003715DF8044B0020704718465DF8044B31
:100ED000704700BFF6010020B8010020F701002094
:100EE00094010020704700BF024A034B10781B7822
:100EF000C01A7047F5010020F4010020064A074996
:100F000013780978994204D90548591CC05C1170BE
:100F100070474FF0FF307047F4010020F5010020CA
:100F2000BC010020054B064A1B7812789A4286BF06
:100F3000044AD05C4FF0FF30704700BFF40100203E
:100F4000F5010020BC01002070B50D4B1B78144644
:100F500013B90C4B1B788BB10B4E3578C5F12103BF
:100F6000A34202D201221C460271084822462844AC
:100F7000254402F0F1FE3570204670BD184670BD64
:100F8000F6010020B8010020F701002094010020A4
:100F900010B5124BDB7803F0200303F0FF045BB1C4
:100FA0000F4A13780133DBB2012B137010D91220D2
:100FB000BDE8104003F020BA122003F01DFA094BDF
:100FC0001B684BB10849094A0C701078984710BD4E
:100FD000074B1B78002BEAD010BD00BF0060064015
:100FE000E001002090010020F4010020F501002024
:100FF000B801002010B41F4C1F4A2048204900238C
:101000002370146844F04004146083700B78122B32
:1010100018D0112B28D01B4B1B78132B1AD0102B58
:101020001DD0154B1B685B0604D5144B28210322E9
:1010300059709A71114B2021802259719A705DF874
:10104000044B7047104B4FF419721A600D4B1B780C
:10105000132BE4D10D4B4FF419721A60E1E70C4BDE
:101060004FF419721A60DCE70A4B4FF419721A60D8
:10107000D1E700BFB8010020348004400060064082
:1010800064DEFF1F6CDEFF1F0CA0044008A00440BC
:1010900000A0044004A0044038B5384CE378DBB22B
:1010A000D80623D510225906E2701ED503F004039A
:1010B00003F0FF02002B33D0314B32491A68324C17
:1010C00000230B702370002A3BD090472378002B1D
:1010D00037D02E4B1D78294B2D4AD02098700121F6
:1010E0001D71264B11700222DA7038BD5A06DDD40C
:1010F000A27802F0100202F0FF0042B313F00103E5
:101100001BD1234920480A780078904281BF1F4BA9
:10111000501C9B5C08702371184BD0229A7008E019
:101120001C48164B174902700120C02208709A70A3
:101130001B79124B0222DA7038BDC023A3702379C9
:10114000F7E7124A0025012315702370C3E7124BFD
:10115000124918700322122003F0CCF80D4A2179AD
:1011600013781F2BC9B2E4D8064800780028E0D0D5
:101170000B4C581CE1541070DBE700BF00600640C8
:10118000DC0100208C010020F701002094010020E8
:10119000F8010020F5010020E0010020910F00007F
:1011A000BC0100200548064A10B40123054C037019
:1011B0004900137021705DF8044B7047F601002060
:1011C000F7010020940100202DE9F003414D122386
:1011D000EB70AB789E0682B040D5B423AB703D4B2C
:1011E000DA78D2B29406FBD53B4BDFF800811B784E
:1011F000C8F800204BB3013B5FFA83FC374F354CF6
:101200000CF1010C002502267B5D23715FFA85F944
:10121000104602E0980607D51846E378DBB29842FC
:1012200018BF1A469807F5D5E670E078C0B2834239
:1012300018BF0246C3062AD4830628D5C3073DD467
:1012400001356545E0D1C8F80020002039BB244BAA
:1012500000221A7002B0BDE8F0037047214803680D
:101260000093009E05E003680193019B9B1B0F2BDD
:1012700019D8EA78174CD2B202F0200303F0FF0726
:10128000002BF0D1184AB0231770A370A7E7114BB9
:10129000C8F8002080229A7004200029D7D00D4B76
:1012A00080229A70D3E71148002102608023042035
:1012B000A170A37002B0BDE8F0037047054BC8F8F9
:1012C0000020B9F1000F4FF080020CBF0220032074
:1012D0009A70BCE700600640F701002094010020EE
:1012E000F601002018050020B801002068DEFF1F6D
:1012F0000548064A10B40123054C037049001370D9
:1013000021705DF8044B7047F6010020F7010020C2
:10131000940100200121FFF757BF00BF044B054A8D
:101320001A604FF47A71002299601A711A7370472B
:10133000E4010020188100002DE9F04F00F5807EC7
:10134000B1E8A00AB2E84015C5EA0643C6EA25445A
:10135000C7EA0845C8EA2746C9EA0A47CAEA294847
:10136000CBEA0C49CCEA2B4AA0E8F80786457FF483
:10137000E7AFBDE8F04F70474FF000022DE9F00FE6
:1013800000F5807CB1E8A00AC5EA0203C2EA254460
:10139000C7EA0205C2EA2746C9EA0207C2EA2948A3
:1013A000CBEA0209C2EA2B4AA0E8F80784457FF499
:1013B000E9AFBDE8F00F70474FF000022DE9F00FE4
:1013C00000F5807CB1E8A00AC2EA0543C2EA050440
:1013D000C2EA0745C2EA0706C2EA0947C2EA0908A3
:1013E000C2EA0B49C2EA0B0AA0E8F80784457FF479
:1013F000E9AFBDE8F00F70472DE9F00F089C00F54C
:10140000007B00BF51F8045B53F8046BC5EA064744
:10141000C6EA254952F8045B54F8046BC5EA06484D
:10142000C6EA254AA0E8800783457FF4EBAFBDE814
:10143000F00F7047002070470020704770B5144CC3
:10144000242908BFC2800D46017A20461646FFF7C0
:10145000A9FE2368C5F3072120461B689847236827
:10146000E9B21B68204698472368C6F30721204647
:101470001B6898472368F1B21B68204698472046AE
:10148000FFF748FFD0F1010038BF002070BD00BF5A
:10149000E401002010B5044619B1012911D0002043
:1014A00010BD20215522FFF7C9FF0028F7D0E288A0
:1014B00042F00402204692B22421BDE81040FFF71A
:1014C000BDBF2A2140F27312FFF7B8FF0028E6D013
:1014D000204620218822FFF7B1FF0028DFD0E288D4
:1014E000204622F004022421BDE81040FFF7A6BFE9
:1014F00038B50125044605713348FFF77BFD05200B
:1015000002F0FEFF2046302144F26002FFF796FF12
:10151000204626216C22FFF791FF204628214FF418
:10152000F972FFF78BFF20462C2140F62272FFF75D
:1015300085FF20463C2144F24642FFF77FFF2046CC
:10154000242140F23712FFF779FF2046302144F280
:10155000FF02FFF773FF022173222046FFF76EFFA1
:101560004FF4C87002F0CCFF20462E2141F61D52E8
:10157000FFF764FF04210A462046FFF75FFF20467D
:1015800006214FF49872FFF759FF20460A211022D6
:10159000FFF754FF20460E210022FFF74FFF2046A1
:1015A000102143F63C42FFF749FF2046222147F62F
:1015B0007F72FFF743FF204624213622FFF73EFFCC
:1015C0006572284638BD00BFE401002038B50446E6
:1015D000C1B1802903799ABFC1F1800545EA05258B
:1015E000002533B920462A462221BDE83840FFF7BE
:1015F00025BFC288002322F0100203712421FFF7C7
:101600001DFFEFE701230371222147F67F72FFF7E9
:1016100015FFE28842F01002204692B22421BDE874
:101620003840FFF70BBF00BF10B504460846074916
:1016300005F086FE064905F07BFD05F0D1FF014669
:101640002046BDE81040FFF7C1BF00BF00000143C6
:10165000EE7CFF3E10B5044604F09EF8204610BD17
:1016600002480349034A05F0DBBF00BFFC0100202C
:10167000551600003CDEFF1F38B5074D074C0848E3
:101680002946224605F0CCFF294622460548BDE8FA
:10169000384005F0C5BF00BF551600003CDEFF1FF7
:1016A000040200200C02002070B41B4A1B4B11687E
:1016B0001B48096912790270994209D2194A1278B5
:1016C00032B3194A4FF08041116003F5807402E093
:1016D0001C46A3F580731549154A09681268A9B11B
:1016E000A2B1144D2888402810D846003144324415
:1016F0004030043104322880188821F8020B04336A
:1017000033F8020C22F8020B9C42F5D870BC7047EB
:1017100003F58074DFE700BF1C02002040D4FF1FE8
:101720001F8000401602002008E200E02402002092
:1017300018020020140200202DE9F041064603F0B3
:101740008DFE0446F0B103F089FE054600283DD029
:1017500072B6214B1A887F2A1AD8002C33D01F4921
:101760000A6842B162B6204603F0C2FE2846BDE8D0
:10177000F04103F0BDBE1A480C601A80056062B6E5
:10178000BDE8F081054672B6134B1A887F2AE4D96A
:10179000124A1349D2F80080146000220F681A80A0
:1017A0000D6062B64146304603F0C6FE404603F087
:1017B0009FFE30463946012203F0BEFE3846BDE8A2
:1017C000F04103F095BE62B6BDE8F081204603F01B
:1017D0008FFE2C46BCE700BF14020020240200202C
:1017E00018020020F8B5314C0121204603F060FFBB
:1017F00000F0DAF92E4B21792E482F4A4FF48065FC
:101800001D6023681D68186018691A6101F1804124
:101810004FF48072D88ADA8201F50431D88BDA83EA
:101820000125002202264FF0FF306FF0010C4FF02F
:10183000060E8E2783F819C01A71B3F81CC05A71AE
:101840005A729A72DA721A735A739A73DA735A75F1
:101850001A769D71DD711E721E75A3F81CE09876D4
:10186000D8760A700F7003F0C7FE1449144B227922
:10187000144E08701A70316822791348134C144FB3
:1018800041F012412943531131609B00016803F17B
:10189000604302F01F0603F561431032B54041F08A
:1018A0001041016044F822701D60F8BD1C02002048
:1018B00014B00440A0F0024040D3FF1F16020020E5
:1018C0001B80004080F0024000F0024000D8FF1F63
:1018D000A916000002480349034A05F0A1BE00BF53
:1018E0001C020020551600003CDEFF1F0248034981
:1018F000034A05F095BE00BF2802002055160000DF
:101900003CDEFF1F2DE9F0474FF0000A80460746F6
:10191000D14640465146B9F1000F4FD003F026FEA4
:10192000F0B1BC69B4F5803F09F1040300F104058E
:1019300009F5827E28D055F8042B34FB02F134FBE4
:1019400012F201F30F0102F30F02C1EA02421E6814
:1019500092FA16F643F8046B9E45ECD803F0C8FDE6
:101960000AF1010ABAF1040F07F10407D1D1B9F164
:10197000000F3FD040464946002203F0DDFD4846B7
:10198000BDE8F04703F0B4BD09F10C0500F10C040B
:1019900055F8082C54F8081C92FA11F245F8082C56
:1019A0005A6854F8041C92FA11F25A6008339E45A2
:1019B00005F1080504F10804EAD8CFE703F0E2FDD9
:1019C00081460028CCD0B969B1F5803FC8D0031D4D
:1019D00000F582741A6831FB02F031FB12F200F359
:1019E0000F0002F30F02C0EA024243F8042B9C42AC
:1019F000F0D8B5E7BDE8F08702480349034A05F08F
:101A00000FBE00BF30020020551600003CDEFF1F55
:101A10002DE9F84F334B34481A68344912681B7962
:101A20000B70824229D2324B1B784BBBDFF8D0B00F
:101A3000DFF8D0A0DFF8D080DFF8D090DBF80060CE
:101A4000DAF80070B8F80040B9F80050002E3AD02B
:101A500006EB440197B307EB450204310432FFF76C
:101A60006BFC403440357F2C1CD8A8F800407F2DFB
:101A70000BD8A9F80050BDE8F88FA0F58070D5E725
:101A80001C4B4FF080421A60D0E700243846A9F87A
:101A9000004003F02DFD184B1A68CAF800201C60A6
:101AA000BDE8F88F00243046A8F8004003F020FD80
:101AB000124B1A68CBF800201C60D8E70431FFF7FE
:101AC0005BFC4034CFE737B107EB45010431FFF74A
:101AD00073FC4035C7E739464FF48072BDE8F84FD4
:101AE00006F07AB83C02002040D6FF1F1F8000405D
:101AF0005402002008E200E05002002058020020BA
:101B00004C0200204402002038020020480200203D
:101B100070B50021054603F029FD034680B172B679
:101B20001B490A68002A29D01A4C206800B31A4EB3
:101B3000086000212360318062B6104603F0D8FCB3
:101B40002846012103F012FD88B172B6134A1368CA
:101B5000CBB113490C6874B1124D146000220860B7
:101B60002A8062B61846BDE8704003F0C1BC70BD63
:101B7000236062B6E4E7086062B670BD06480B6099
:101B8000028062B6DCE7074910600B8062B670BD68
:101B90004C0200205802002038020020440200209D
:101BA0005002002048020020334B344A1868344960
:101BB00040F400402DE9F00F1860106840F002007A
:101BC00010601A6842F002021A600B68002B4FDBAB
:101BD0002C4B1B68002B4BDB2B4A4FF086431360CA
:101BE0001368002BFCDBDFF8CCA0DFF8CC90DFF82B
:101BF000CC80DFF8CCC0254F254E264B264D274CF8
:101C000027482849284A47F2320BCAF800B04FF05B
:101C1000000AC9F800A04FF00109C8F80090DFF8E9
:101C2000A480CCF800804FF4803CC7F800C01F4F60
:101C3000376008F180481E4E2E60C4F800A005F5FC
:101C4000DF35C0F8009004F5DF34C1F80080C2F839
:101C500000C01F605E6003F5DF3305F5FC7504F519
:101C60009C7403F5BC734FF4C0601860286020605A
:101C7000BDE8F00F704700BF3C8004404080044046
:101C800000F0024080F0024000F102400CF00240FF
:101C900010F0024090F0024014F00240E0F00240E8
:101CA00084F0024088F002408CF002401B0F0100DB
:101CB000000F0F0F04F1024060F0024004F00240F8
:101CC00008F00240030000072DE9F041324D0121E8
:101CD000284603F0EDFC314A314B002414601C60AF
:101CE000FFF762FF2F4B2A792F4830494FF4C06627
:101CF0001E602B681E6818601869196102F1804225
:101D00004FF48071D88AD98202F50432D88BD983F6
:101D100002204FF0FF3101266FF0010C4FF0060E4C
:101D20008F275C715C729C72DC721C731C755C7515
:101D30001C765C769C76DC7683F80DC09E71B3F8D9
:101D40001CC0DE719973D9731871A3F81CE0187266
:101D50001470177003F050FC2B79154ADFF864C03B
:101D600010705A11920002F1604203F01F001149F5
:101D7000114C124F124D984602F5614210338CF807
:101D8000008086404FF0807008600F6044F8235058
:101D90001660BDE8F08100BF3C0200204C0200202C
:101DA0004402002004B0044040D5FF1F20F0024050
:101DB0005402002000F0024000D8FF1F01000090F4
:101DC000111A00001B80004002480349034A05F035
:101DD00027BC00BF3C020020551600003CDEFF1F60
:101DE00002480349034A05F01BBC00BF5C02002007
:101DF000551600003CDEFF1F02480349034A05F068
:101E00000FBC00BF64020020551600003CDEFF1F1F
:101E100002480349034A05F003BC00BF6C020020DE
:101E2000551600003CDEFF1F02480349034A05F037
:101E3000F7BB00BF74020020551600003CDEFF1FF8
:101E400090F830302DE9F04107460BB9BDE8F0813C
:101E500003F004FB80460028F8D0F9693B6A9942F8
:101E60002BD9CC1A29D003F58072B8699142184455
:101E700008F1040135D2224600F0ECFE3B6AFA6A12
:101E80002344224464087F2C3B62FA620BD866002C
:101E9000002308EB4405C6F580761C46EA18023399
:101EA000B3429480FAD138464146002203F044FB05
:101EB0004046BDE8F04103F01BBB104B1A8852B9F5
:101EC0005E2000F0D7F8002387F830304046BDE8A8
:101ED000F04103F00DBB013A92B21A80002AEFD014
:101EE000F1E74FF4807200F0B5FE3B6AFA6A03F541
:101EF000807302F580723B62FA62D4E77C020020B4
:101F0000002380F830308362C362704772B690F865
:101F100030304BB1002380F8303062B6064B1A885F
:101F200022B95E2000F0A6B862B67047013A92B2BC
:101F30001A80002AF5D070477C02002070B51A4E36
:101F400084B004460D46FFF7E1FF5E2000F078F80C
:101F50003388294601336846338001F0F3FD6B4630
:101F600007CBA061A0691B88A384E161226240B114
:101F70000022E369E2620120A36284F8300004B029
:101F800070BD33882BB95E2000F074F8002004B0D7
:101F900070BD013B9BB23380002BF0D15E2000F07E
:101FA00069F80020F3E700BF7C020020184A194BB3
:101FB00019491A48F0B41768194E1A4D1A4C47F4CB
:101FC000805717601E60DD601C6118600B78D907B0
:101FD00018D402F53F521C324FF4107111609A0769
:101FE00054BF124A124A5B074FF4007154BF114BA1
:101FF000114B116054BF4FF410724FF400721A600D
:10200000F0BC70470D4A4FF400711160E7E700BF64
:102010003C80044000C002404406002000001F80B5
:1020200001401F0001100038011000781CB004406E
:102030000CC0044014B0044004C0044008C0044074
:102040005E2870B410D843090849094A51F8235052
:102050001678012400F01F0004FA00F005439C40AC
:10206000344341F82350147070BC70478002002044
:10207000980200205E2810B414D843090B4A00F0DF
:102080001F0052F82340012101FA00F024EA000069
:1020900042F8230030B9064A107801FA03F320EA27
:1020A000030313705DF8044B704700BF80020020EB
:1020B00098020020064B074ADA620221002259608A
:1020C0009A7083F8242083F8302083F832207047F8
:1020D0009C0200209881000008B50121007802F0E0
:1020E000E1F90E4B1A7802B908BD0D4A12780021A9
:1020F0001970002AF8D0D00703D50A490A4B09689D
:102100001960910703D50749084B496819605307BF
:10211000EAD5044A064B92681A6008BDF402002012
:10212000980200208C02002000E100E004E100E0C1
:1021300008E100E070B4204B1A7822B10078002149
:1021400070BC02F0AFB91D491D4A0C781268012518
:102150001D7004B372B60B78DC0707D519491A4C09
:102160000E682468194D34402C600C60990707D51F
:10217000174C154926684968144D31402160696043
:102180005B0707D51349104B0D689B680F4C2B401C
:102190000B60A36062B6104BD9689142CED00F4C51
:1021A0001C600F49DA6042F080441C6119600078BD
:1021B000002170BC02F076B9F402002098020020E1
:1021C000F002002080E100E0800200208C0200206C
:1021D00084E100E088E100E000C0024001401F000F
:1021E00000001F80F0B41348134A036882B01646FB
:1021F0000093009F4FF00045BFB2FF24136843F4E3
:1022000080631360D5625463D36A002BFCDAB36B2E
:10221000DBB2FF2B0AD003680193019B9BB2DB1B4F
:102220008B42EBDB002002B0F0BC7047012002B013
:10223000F0BC70471805002000C002402DE9F041B5
:102240000F464FF4967190460546FFF7CBFF294B9A
:1022500018684FF0004140F4806047F04002186079
:10226000D96218465A63C36A002BFCDA214C182045
:102270004FF00042266828FA00F346F48066DBB28D
:102280002660E2626363E36A002BFCDA083810F12F
:10229000080FEFD167B3082F0CBF8721FF21154B23
:1022A0001A684FF0004042F480621A60D8621A4601
:1022B0005963D36A002BFCDA0E4A002716464FF00A
:1022C0000044FF21136843F480631360D4625163B8
:1022D000D36A002BFCDAB36BD8B21B06687001D44A
:1022E000BDE8F0810137B7F5807FEBD1BDE8F08123
:1022F0009521D4E700C00240F0B41549154A0B6897
:1023000082B016460093009F4FF00045BFB2FF24F5
:10231000136843F480631360D5625463D36A002B5F
:10232000FCDAB36BDBB2FF2B43700BD10B6801936C
:10233000019B9BB2DB1BB3F5967FE9DD002002B069
:10234000F0BC7047FE3B5842584102B0F0BC7047A9
:102350001805002000C00240F8B58378032B0D4615
:10236000044618BF4D021646FFF7E4FE20462A46F3
:102370001121FFF763FF18B92046FFF7BDFF20B911
:102380002046FFF7A9FE0020F8BD214B214A224933
:10239000196017465A6319465A631D465A6306F573
:1023A000FD7EB01C06F5FE72CB6A13F0F00FFBD079
:1023B0006F63AB6B00F8013CC3F3072300F8023CEA
:1023C00002309042F0D106F50076B6450ED2104AA2
:1023D00071461046D36A13F0F00FFBD0836B4B703D
:1023E000C3F307230B7002318E42F3D8084B0A491E
:1023F000084A196019465A63CB6A054A13F0F00F70
:10240000FAD02046936BFFF767FE0120F8BD00BFAE
:1024100000C00240FFFF009000041F80F0B42F4E68
:10242000336843F480654FF0004335603446F3620F
:102430001D467163334602F50077E16A0029FCDA34
:102440001E68117846F480661E60DD625963E16A99
:102450000029FCDA1E685178023246F48066BA42DE
:102460001E60DD625963E8D11C49CA6A1B4B002A11
:10247000FBDA1A684FF0004442F48062FF211A60D0
:10248000DC621A465963D36A1449002BFBDA0C68E4
:102490004FF0004244F48064FF230C60CA620C4693
:1024A0004B63E36A0D4A002BFBDA11684FF00044DE
:1024B00041F48061FF231160D46211465363CB6AFB
:1024C000064A002BFBDA936BDBB203F01F0243706A
:1024D000531F58425841F0BC704700BF00C0024033
:1024E00070B50D460446164661B18378032B18BFBC
:1024F0004D02FFF71FFE2A4620461821FFF79EFED9
:10250000054620B12046FFF7E7FD002070BD3246AA
:102510002046FE21FFF782FF0028F3D020464FF42B
:102520001671FFF75FFE0028ECD02A4620460D21E9
:10253000FFF784FE0028E5D10B4B19684FF00040EF
:1025400041F48061FF221960D86219465A63CB6A50
:10255000054A002BFBDA936B13F0FF0FD2D1204614
:10256000FFF7BAFD012070BD00C00240014B024AD6
:102570001A607047F00200200000023838B590F968
:102580000530002B044603DBBDE8384000F064B999
:102590000069012100F08AF9F8B1A379257D0F4A7D
:1025A000012B02EB451598BFA3690D4A98BFEB615B
:1025B000E36912686B831B0CAB8232B105F1180022
:1025C00005F1160190472B8B6B82637903F07F0333
:1025D0006371BDE8384000F03FB938BD0403002006
:1025E000F802002010B500F1080204460121006A3B
:1025F00000F0F6F950B1E3693BB96279A368E36191
:1026000062F07F036371012010BD012010BD00BF87
:10261000F8B5044680790F4600B3A3698B421ED3F8
:10262000022818D00FB3236AE2681B7C511E0933BD
:102630007D1ED940DD40A94213D9E369A36004F1AE
:10264000080605E0206AA16800F054F9013D80B158
:102650003246002DF6D1E7600120F8BDF8BD00201C
:10266000F8BD002AE9D06D1AE9E7A760E76001200C
:10267000F8BDF8BD2DE9F04F837985B0012B0546F3
:102680008A46019205D001232B71002005B0BDE8D8
:10269000F08F43799907F6D55B0700F19680EC68D7
:1026A000019B002B00F09C805F4FDFF890819B46E0
:1026B00035E0002C3DD1A96800296BD1EA69002AD8
:1026C0007AD0AA60017C4069C4F50076B6B2023ABD
:1026D0008A4009EB00035E4503EB02012BD8B6F5F7
:1026E000007F29D1D8F800308B4204BF4FF0FF3370
:1026F000C8F800304D4B52461868FFF7F1FE00282D
:10270000C1D00AF5007A4FF40074EB68C6EB0B0BEE
:102710001C441FFA8BFBEC60BBF1000F60D0286AF1
:102720000379013B03EA542313F0FF09C4F30804BF
:10273000BFD0AA68C6E75E461CB9EA68AB699A4290
:1027400015D20846012100F0B1F800289BD0E0190D
:10275000811988421CD00346544614F8012B03F813
:10276000012B8B42F9D11B1A9A443446CDE70091D4
:1027700000F072F80099002885D02D4BC8F80010A1
:102780001A78E019811942F0010288421A70E2D1E8
:102790003446BAE703AA00F0ADF800283FF476AF5C
:1027A000286A244B90F82060039A4FF6F871102E97
:1027B00018BF19468A4284D32846FFF713FF002822
:1027C0003FF461AF286AAA687CE7EC68A9698C428B
:1027D0003FF466AFFFF71CFF00283FF454AF5EE7FD
:1027E000AB69A34214D26B79AC6143F080036B7187
:1027F0001A0709D5AB79002B3FF445AF2846FFF700
:10280000BDFE00283FF43FAF019805B0BDE8F08F52
:10281000094B1B6833B1019B23B16B7943F08003F3
:102820006B71E5E76B79E3E7040300200003002008
:1028300004050020F8FFFF0FF802002070DEFF1FE4
:1028400000B583B002AB012203F8011D1946FFF762
:1028500011FF03B05DF804FB70B50F4C23780BB982
:10286000012070BD0D4D0E4B286819680D4AFFF709
:1028700037FE0028F5D00C4E316819B900232370BB
:10288000012070BD2868074AFFF72AFE0028E8D01B
:1028900000233360F2E700BF04050020000300209E
:1028A00070DEFF1F04030020FC02002070B50D4DF8
:1028B0002B68834204460E460DD0FFF7CDFF08B9C2
:1028C000002070BD084B094A18682146FFF744FDF7
:1028D0000028F5D02C60064B1A7816431E70012094
:1028E00070BD00BF70DEFF1F000300200403002046
:1028F00004050020C36801338B4270B504460D46C1
:1029000016461DD390F82030124AC1691268102B68
:102910000CBF280AE8090844904205D00021FFF7BF
:10292000C5FF68B194F82030102B0BD005F07F055F
:10293000094B53F8253023F070433360012070BDFC
:10294000002070BDEDB2044B33F815303360012028
:1029500070BD00BF70DEFF1F040300200129F8B521
:102960000C46054617462CD9C3680133994228D82E
:1029700090F82030164AC1691268102B0CBF260A45
:10298000E6090E44964206D030460021FFF78EFF3E
:10299000C0B195F82030102B15D004F07F040D4BFA
:1029A00043F824700C4B2A7E1978012A41F001016A
:1029B00088BFAA68197082BF084BB6181E60012034
:1029C000F8BD0020F8BDE4B2024B23F81470E9E72B
:1029D00070DEFF1F0403002004050020FC0200201D
:1029E0002DE9F04F146883B091468346884664B35E
:1029F00001344FF0000ADBF80C305F1C0BB32646A5
:102A0000002506E01C461E46DBF80C300135AB42C3
:102A100017D9A74238BF02242146584601AA38BF19
:102A20002646FFF767FF631C991B50B1019A002AE5
:102A3000E8D1414510D01C46DBF80C300135AB42E3
:102A4000E7D8002003B0BDE8F08F4B1ED3F1000A99
:102A500004685AEB030ACEE7584621466FF07042ED
:102A6000FFF77CFF0028ECD0B44203D80BE0B5425E
:102A700009D92C46651E224629465846FFF76EFFA7
:102A80000028F4D1DDE7D9F8001049B9C9F8006091
:102A9000BAF1000F02D00136CBF800600120D1E777
:102AA00058463246FFF75AFF0028EFD1C9E700BF6A
:102AB0002DE9F00F584D594B2A78594FDFF878B16E
:102AC000DFF87881DFF878C1564C19461AB372B630
:102AD0002A78D60707D554480668DCF8000030404D
:102AE000514E20603060900709D5DFF85891DCF82E
:102AF0000400D9F8006030406060C9F80000560753
:102B000007D5D8F80000DCF808200240A260C8F819
:102B1000002062B62A78D868B0F1384F09D0434E09
:102B20001E604FF03846DE6041484FF078461E6127
:102B300018609BF800003E684FF00109800786F896
:102B400000914FF0004935D57020C3F82C905863A0
:102B5000D86A0028FCDA4FF000490020D1F838A0EC
:102B6000C1F82C904863D86A0028FCDA886B4FF0D3
:102B70000109C0B286F88090A2B1D60704D5DFF86B
:102B8000C8902668C9F80060960704D5DFF8BC90A5
:102B90006668C9F80060560704D5DFF8B490A668E7
:102BA000C9F80060000691D5224B00221A70BDE8DA
:102BB000F00F70470520C3F82C905863D86A00289E
:102BC000FCDA4FF000490020D1F838A0C1F82C9071
:102BD0004863D86A0028FCDA886B4FF00109C0B25C
:102BE00086F88090A2B1D60704D5DFF85C902668FD
:102BF000C9F80060960704D5DFF850906668C9F8F8
:102C00000060560704D5DFF84890A668C9F8006050
:102C1000C0073FF55BAFC7E79802002000C0024045
:102C20000C0500208C02002080E100E001401F0024
:102C300000001F80090500200805002088E100E051
:102C40008002002084E100E000E100E004E100E017
:102C500008E100E02DE9F04F894687B000210446E5
:102C60004846904604F0B8FF8C498D4A0B78167898
:102C70000596CBB172B60B78DD0707D589498A482E
:102C80000E680068894D304028600860980707D5B5
:102C90008748854906684968844D3140016069600C
:102CA000590700F1918162B6824BD968B1F1384F72
:102CB00009D08148186081494FF038454FF078407D
:102CC000DD60186119607E490B780493002B40F099
:102CD00001817C4B1B6801930599764D01F0080238
:102CE000D2B20292059A029E4FF0004002F0010219
:102CF0002B460146039208EB040B002E58D1B24636
:102D0000019E4FF0010286F80021039A002A5FD04D
:102D10000326E8626E63EA6A002AFCDA220C42F0BB
:102D200080529E6BD8625A63EA6A002AFCDAA2B229
:102D300042F080529C6BD8625A63EA6A002AFCDA3D
:102D40009A6BB8F1000F22D02C6899F8002044F457
:102D50008064B8F1010C2C60E8626A6300F097802F
:102D6000CC444A465678EC6A002CFCDA9C6B1F680F
:102D700047F480671F60D9625E6302F8014B6245C9
:102D8000F0D1EA6A002AFCDA9A6B8CF80020019CE8
:102D90004FF0010284F88020C1440122BAF1000FF3
:102DA0002BD0029ED0465C4608EB040B002EA6D02A
:102DB0000BF1FF32624012F07E4AA1D024F07E4235
:102DC000C2F10072C2EB080A02EB040B904697E7CF
:102DD000C4F3074242F0805242F44072E8626A63F0
:102DE000EA6A002AFCDAA2B242F080529C6BD862F6
:102DF0005A63EA6A002AFCDAA2E7049E002E2ED06B
:102E000001992C4B81F800214FF000410622D96234
:102E100019465A63CB6A274A002BFBDA926B019A58
:102E2000012382F880301823013B7FF4FDAF059B1E
:102E3000580700F1C3807A221E4B019E01214FF0FA
:102E4000004086F80011D86219465A63CB6A194AC5
:102E5000002BFBDA0199926B012381F880300F4A35
:102E600013788BB1D90703D51049174A0968116047
:102E70009A0703D50D49154A496811605B0703D5C8
:102E80000A4A134B92681A6007B0BDE8F08FEA6AED
:102E9000002ACC46BFF675AF76E700BF9802002047
:102EA0000805002080E100E0800200208C02002064
:102EB00084E100E000C0024001401F0000001F80CC
:102EC000090500200C05002000E100E004E100E01D
:102ED00008E100E08A4E13783568012213F0020FF2
:102EE00085F80021874B4FF0004076D07022D862E1
:102EF00018465A63C26A834B002AFBDA4FF000403F
:102F000000229F6BD86218465A63C36A7D4A002B21
:102F1000FBDA936B1B0676D4049B0122022B85F807
:102F2000802000F29A80774B85F800214FF0004115
:102F30000622D96219465A63CB6A724A002BFBDA21
:102F40000123926B85F880301823013B7FF4FDAF9D
:102F5000059E70075FD475226A4B01214FF0004037
:102F600085F80011D86219465A63CA6A654B002A6F
:102F7000FBDA059E996B0122B10785F880204FF09E
:102F800000404ED5702185F800211E46D862596355
:102F9000F36A5C4A002BFBDA936B16464FF0004055
:102FA0000021D0625163D36A002BFCDAB36B1F0699
:102FB000F7D5012385F8803001958DE6049C012C1E
:102FC0000CBF8A227A2237E74F49504B0D689B6825
:102FD0004F482B400B60836065E60522D862184697
:102FE0005A63C26A474B002AFBDA4FF000400022C6
:102FF0009F6BD86218465A63C36A424A002BFBDAB9
:10300000936BDF0788D40023012285F88020019587
:103010000B70049360E6049901290CBF8522752288
:103020009AE7052185F800211E46D8625963F36AA4
:10303000344A002BFBDA936B16464FF00040002118
:10304000D0625163D36A002BFCDAB36BDB07F7D491
:10305000012385F8803001953EE62E490B788BB12F
:10306000DF0703D52A492C4A09681160980703D560
:1030700027492A4A49681160590703D5244A284B31
:1030800092681A60FFF714FD224B1A78002A34D098
:1030900072B61B78DA0707D5224A1C4915680968F9
:1030A0001B482940016011609F0707D51E49174A38
:1030B0000D68526816482A400A6042605D0707D5CD
:1030C000114A124B10689B681149034013608B60D2
:1030D00062B6366801960B4BDA68B2F1384F09D008
:1030E00012491960124A4FF038404FF07841D860C9
:1030F00019611A6000260496EEE50195EBE700BF22
:103100000C05002000C0024088E100E080020020A1
:103110008C0200209802002000E100E004E100E0C1
:1031200008E100E080E100E084E100E001401F00F0
:1031300000001F802DE9F84FDFF8E0A16A4C9AF8F3
:103140000030DFF8A891DFF8D8B107460D46904669
:103150002646002B40F0A88099F80030634A002BE7
:1031600023D072B61378D90708D5614A6149086837
:103170001168614A014011605E4A11609A0708D5E2
:103180005B4A5E49086851685B4A01405B480160E0
:103190005160580708D5564B594A594811689A68E2
:1031A000554B0A4002609A6062B6E368B3F1384F4B
:1031B00009D0544A22604FF03842E260524B4FF03F
:1031C00078422261236051490B68012283F8002173
:1031D0004FF000410622E1626263E26A002AFCDAF3
:1031E000FAB20121C2F58072B06B83F880104245BB
:1031F00028BF4246182001387FF4FDAF9BF800003D
:1032000083F80011C10752D54FF000400221F0624F
:103210007163E16A0029FCDA390C41F080514FF00A
:103220000040D6F838C0F0627163E16A0029FCDA28
:10323000B9B241F080514FF00040D6F838C0F0628A
:103240007163E16A0029FCDAB16B1744C2EB08082C
:103250004FF000402A4415F8011BE0626163E16A07
:103260000029FCDA9542B16BF5D1012099F80010E4
:1032700083F8800004238AF8003089B1CD0703D594
:103280001D48234B00681860880703D51A48214B56
:10329000406818604B0703D517491F4B89681960B0
:1032A000B8F1000F1DD01546FFF702FC54E7C7F335
:1032B000074141F0805141F400714FF00040F0624D
:1032C0007163E16A0029FCDAB9B241F080514FF034
:1032D0000040D6F838C0F0627163E16A0029FCDA78
:1032E000B2E7BDE8F88F00BF00C00240980200209E
:1032F0008002002080E100E08C02002084E100E0F8
:1033000088E100E001401F0000001F800C05002044
:1033100000E100E004E100E008E100E00905002030
:103320000805002070B5534B1B780446002B40F075
:103330009D8051480378C3B172B60378DA0707D588
:103340004E4A4F49166809684E4D31402960116058
:103350009E0707D54C494A4A0E685268494D32408B
:103360000A606A605D075FD462B6484BDA68B2F102
:10337000384F09D046491960464A4FF038454FF05A
:103380007841DD6019611A60434A404B156801219C
:103390004FF000469F2285F80011DE6219465A63FD
:1033A000CB6A3A4A002BFBDA4FF000410023966BC0
:1033B000D16211465363CB6A344A002BFBDA936B1C
:1033C00023704FF000410023D16211465363CB6A52
:1033D0002E4A002BFBDA936B63704FF00041002301
:1033E000D16211465363CB6A284A002BFBDA23785B
:1033F000916BA170012B20D00378012285F88020E9
:103400008BB1D90703D51F49244A096811609A076F
:1034100003D51C49224A496811605B0703D5194A44
:10342000204B92681A6070BD1F4A154B15689B6847
:1034300014492B4013608B6096E74FF00041002346
:10344000D16211465363CB6A104A002BFBDA936BAF
:10345000E3704FF000410023D16211465363CB6A01
:103460000A4A002BFBDA936B2371C5E7FFF720FBB9
:103470005FE700BF090500209802002080E100E01E
:10348000800200208C02002084E100E000C00240A5
:1034900001401F0000001F800C05002000E100E03B
:1034A00004E100E008E100E088E100E02DE9F043FC
:1034B000934D2B7883B0002B40F093806846FFF744
:1034C00031FF9DF80030202B73D08E4B1C780CB34D
:1034D00072B61A78D60707D58B498C480E680068F3
:1034E0008B4C304020600860940707D58948874995
:1034F00006684968864C314001606160500707D515
:103500008549824A0C689268814822400A6082603C
:1035100062B61C78814BDA68B2F1384F09D0804925
:103520001960804A4FF038404FF07841D8601961F7
:103530001A607D4A794B106801214FF0004606223F
:1035400080F80011DE6219465A63CB6A734A002B79
:10355000FBDA0123916B80F88030182101397FF468
:10356000FDAF4FF00047C72680F800311146D76203
:103570005663CB6A694A002BFBDA0123926B80F811
:1035800080308CB1E10703D5614A684B12681A603C
:10359000A20703D55E4A664B52681A60630703D5DB
:1035A0005B4A644B92681A6003232B7003B0BDE83A
:1035B000F0839DF80230A3F12002022A85D8212B46
:1035C0005D4811D002789411E7B202F03F02012F5A
:1035D0000270EBD8222B0CBF4FF0080C4FF0020CFE
:1035E0000AE0FFF765FA69E7047804F03F03A411E5
:1035F0000370E7B24FF0020C424B1A7822B372B656
:103600001B78D90709D5404A4049D2F8008009689B
:103610003F4E08EA0101316011609A0709D53D4922
:103620003A4AD1F800805268394E08EA02020A602C
:1036300072605B0707D5384A344B16689B6834497B
:10364000334013608B6062B6344BDA68B2F1384FA6
:1036500009D033491960334A4FF038464FF078416A
:10366000DE6019611A60304A2C4B166801214FF058
:103670000048062286F80011C3F82C8019465A63C8
:10368000CB6A264A002BFBDA0123916B86F8803047
:10369000182101397FF4FDAF4FF000494FF0C40805
:1036A00086F800311146C2F82C90C2F83480CB6AFB
:1036B0001A4A002BFBDA0CFB07F31B024FF0004108
:1036C00043F08053976BD16211465363CB6A134A20
:1036D000002BFBDA4FF000414FF08053976BD16223
:1036E00011465363CB6A0D4A002BFBDA0378926BC9
:1036F000621C43EA82120123027086F8803053E78D
:10370000090500209802002080E100E080020020EE
:103710008C02002084E100E088E100E000C002406B
:1037200001401F0000001F800C05002000E100E0A8
:1037300004E100E008E100E008050020F8B5554C80
:1037400023780BB90120F8BD534B187808B372B633
:103750001A78D00707D5514951480E680068514D75
:10376000304028600860910707D54F484C490668EB
:1037700049684C4D314001606960520707D54B499B
:10378000474A0D68926847482A400A60826062B6DC
:103790001878474BDA68B2F1384F09D045491960BB
:1037A000454A4FF038454FF07841DD6019611A60A5
:1037B000424B434A1E7815680123B70785F800314C
:1037C0004FF000413A4B2ED57022D96219465A6308
:1037D000CB6A374A002BFBDA4FF000410023976B8E
:1037E000D16211465363CB6A314A002BFBDA936BEB
:1037F0000122DBB285F8802088B1C50703D52949AD
:10380000304A09681160810703D526492E4A496864
:103810001160420703D523492C4A896811601F06AD
:103820002ED40020F8BD0522D96219465A63CB6A0E
:103830001F4A002BFBDA4FF000410023976BD16247
:1038400011465363CB6A1A4A002BFBDA936B0122B1
:10385000DBB285F8802088B1C50703D51149194A24
:1038600009681160810703D50E49174A496811603C
:10387000420703D50B49154A89681160DB07D0D48C
:10388000002516F0C00F25703FF45CAFFFF70EFE69
:103890002846F8BD090500209802002080E100E0DC
:1038A000800200208C02002084E100E088E100E03A
:1038B00000C0024001401F0000001F8008050020DA
:1038C0000C05002000E100E004E100E008E100E078
:1038D0008378A3F110020F2A0ED9A3F12002052A42
:1038E00009D902785AB942785AB9002B0CBF002086
:1038F0004FF480107047063B012098407047FF2A24
:1039000002D04FF4801070474278FF2AF9D1FF2B84
:103910000CBF00204FF48010704700BF70B5614BA2
:10392000614A624D53F830302B6082B00646012464
:103930001470FEF73BFB3046214600F0B9FD2E68BF
:10394000684686F88040FFF7EDFC6846FFF7C0FF49
:10395000B0F1807F14D89DF80020012A4FF00003B9
:1039600000F08980202A08D0514A68461370FFF77A
:10397000D9FC012002B070BD092343F00203F3E734
:103980004C4803780BB372B60378DA0707D54A4A76
:103990004A49166809684A4C3140216011609E0707
:1039A00007D54849454A0E685268454C32400A607E
:1039B00062605C0707D5444A404B14689B684049E5
:1039C000234013608B6062B62E68404BDA68B2F118
:1039D000384F09D03E4919603E4A4FF038444FF005
:1039E0007841DC6019611A609DF80030012B4BD0E2
:1039F000364B01214FF00044062286F80011DC62AC
:103A000019465A63CB6A314A002BFBDA0123916BCA
:103A100086F88030182101397FF4FDAF4FF0004562
:103A2000B72486F800311146D5625463CB6A274A21
:103A3000002BFBDA0123926B86F8803003788BB180
:103A4000D90703D51E49244A096811609A0703D58E
:103A50001B49224A496811605B0703D5184A204B6D
:103A600092681A609DF80020202A85D0012A4FF024
:103A700001037FF477AF9DF8042012B943F01403DB
:103A800072E743F004036FE7104A86F80031154CE3
:103A90004FF00043D36211465463CB6A0B4A002BAC
:103AA000FBDAC7E7CC810000100500200C050020E0
:103AB000080500209802002080E100E0800200203C
:103AC0008C02002084E100E088E100E000C00240B8
:103AD00001401F0000001F8000E100E004E100E061
:103AE00008E100E08017001000B583B008226946A5
:103AF0000020FFF7AFF8009B104A93421AD0013321
:103B000003D0002003B05DF804FB0D4B00920020B1
:103B1000694608220193FFF70DFBFFF70FFE00280F
:103B2000FBD0082269460020FFF794F8034A009B67
:103B30009342E6D1019803B05DF804FB4C5596FA28
:103B40005802F6182DE9F04F002393B0036001905E
:103B50000491FFF7C9FF002878D004990B7880B250
:103B60000390002B00F08780444A45485A4011F8E2
:103B7000013F00FB02F2002BF8D1424B5108A3FB9E
:103B800001039B0BC3EBC333A2EB430301331FFAC7
:103B900083FB039B002B59D003EB430305930023C6
:103BA00002930DF12809039B0298C0EB0308B8F1BA
:103BB000070F56D80430400049464FEA4802FFF745
:103BC00049F8B8F1000F45D0039B1F1D029B03EB82
:103BD000830217447F00002508E04FF6FF729342EE
:103BE00034D00135454507F10A0733D239F815308D
:103BF0005B45F2D1002307A938460A220993FFF753
:103C000029F8099B0599049C02330B444FEA830A67
:103C10000DF14706504610220EA99244FFF71AF8FC
:103C20000DF1370301E0B342F4D014F8012B13F87F
:103C3000011F9142D5D10029F5D1029B0198079A25
:103C400081601D44089B858180E80C00019813B0B9
:103C5000BDE8F08F029B0398434498420293A2D898
:103C6000F4E7029B181D400049461022FEF7F2FFC0
:103C70004FF00808A8E74FF4204B8AE7C59D1C8148
:103C800093010001030001802DE9F047002388B073
:103C90000370064688469246FFF726FF002851D05B
:103CA000DFF8B090B9F8004087B2A7424AD9251D85
:103CB0006D0002E00134A74244D9284602220DF1EA
:103CC00006011544FEF7C6FFBDF80630002BF1D003
:103CD00004EB8403B81D184406220023400001347D
:103CE00002A90393A9F80040FEF7B4FF029B5A1CF7
:103CF00028D0039ACAF8003007EB470702F10209FF
:103D0000B9444FEA8909B8F1000F16D004AFB8F1F1
:103D1000100F34BF454610252A4648463946FEF75F
:103D200099FF0023FC5C06F8014B013374B19D42FE
:103D3000F8D8B8EB0508A944E9D1002306F8013CFE
:103D4000012000E0002008B0BDE8F087012008B0A5
:103D5000BDE8F08706050020844641EA000313F021
:103D600003036DD1403A41D351F8043B40F8043B82
:103D700051F8043B40F8043B51F8043B40F8043B45
:103D800051F8043B40F8043B51F8043B40F8043B35
:103D900051F8043B40F8043B51F8043B40F8043B25
:103DA00051F8043B40F8043B51F8043B40F8043B15
:103DB00051F8043B40F8043B51F8043B40F8043B05
:103DC00051F8043B40F8043B51F8043B40F8043BF5
:103DD00051F8043B40F8043B51F8043B40F8043BE5
:103DE00051F8043B40F8043B403ABDD2303211D385
:103DF00051F8043B40F8043B51F8043B40F8043BC5
:103E000051F8043B40F8043B51F8043B40F8043BB4
:103E1000103AEDD20C3205D351F8043B40F8043B84
:103E2000043AF9D2043208D0D2071CBF11F8013B82
:103E300000F8013B01D30B8803806046704700BF48
:103E4000082A13D38B078DD010F003038AD0C3F157
:103E50000403D21ADB071CBF11F8013B00F8013B39
:103E600080D331F8023B20F8023B7BE7043AD9D3F8
:103E7000013A11F8013B00F8013BF9D20B780370CD
:103E80004B7843708B788370604670472DE9F00F54
:103E90003A4A3B4913681B06FCD40B6813F08003B5
:103EA000F8D172B6374A1178002963D03648374CBA
:103EB0003749D4F800A0D0F800B0D1F80090D4F879
:103EC0000C80D0F80CC0CF68324E334DDA44D14468
:103ED000C844C4446744C7F34E0747F400473760FB
:103EE000D5F800A0D0F820B0D1F82090D4F82C80DC
:103EF000D0F82CC0CF6ADA44D144C844C4446744E3
:103F000005F5FF25C7F34E0700F5002005F5FC6514
:103F100047F40047776001F500210C34D5F800A084
:103F2000D0F800B0D1F8009004F50024DA44D4F8B9
:103F30000080D0F80CC0CF68D144C844C444674462
:103F400006F50026C7F34E0747F4004737602F6A8F
:103F5000D0F820C00E6A256AC46AC86A67443E4425
:103F600035442C442044C0F34E0040F4004041F856
:103F7000100C137062B6BDE8F00F704724B0034018
:103F800024B00B40120500203CB0034038B0034081
:103F900040B003402CB0034058B0034030B429482F
:103FA000294A2A4B2A4D6024E121047011701B78A4
:103FB000284C082B30D00A2B2748284937D00C2B07
:103FC0000CBF15223D2212232A60236002600B6081
:103FD000234B24491B78244ABBB101230B60136097
:103FE000224B23491B78234A012B26D9042B0FD9B6
:103FF000082B1ED9102B94BF862387230B601360D8
:104000001D4B01221A7030BC70470B601360E7E74C
:1040100084230B601360F3E700F58E200F4908300E
:10402000012213232A60236002600B60D0E719226B
:10403000F7E785230B601360E2E780230B601360D2
:10404000DEE700BF004007400140074074DEFF1F6D
:1040500008B003400CB0034008B00B400CB00B405C
:104060001505002020B0034020B00B4075DEFF1F77
:1040700024B0034024B00B401205002028282DE96D
:10408000F0412BD82F4B1E5CFF2E27D02E4B1B78D8
:104090003BBB320629D472B62C4D2D4C2F46012342
:1040A00026602B7062B672B623681B060CD43B7870
:1040B0001BB9F4E72B78002BF1D062B601F01AFCA3
:1040C00072B623681806F5D5224A002310682B70B3
:1040D00062B6214B1B781841BDE8F0810020BDE895
:1040E000F081FFF7D3FE3206D5D572B61B4D1C4FBB
:1040F0001C4C06F040085FFA88F806F03F063B6863
:10410000B8F1000F1AD023F010033B6001232660A2
:10411000124A2B7062B672B6236819060CD4137853
:104120001BB9ECE72B78002BE9D062B601F0E2FB7B
:1041300072B623681B06F5D50B4AC6E743F0100399
:104140003B60E3E7A0810000120500201405002079
:1041500000B0034010B003401105002013050020FB
:104160000CB00B4000B00B4010B00B40024B1A6873
:1041700001321A60704700BF1805002008B5104CC6
:1041800008E0236859050DD423681A050FD4236865
:10419000DB0411D423685803F3D500F011FB236826
:1041A0005905F1D501F002FF23681A05EFD502F099
:1041B000ABFA2368DB04EDD502F064FDEAE700BF4B
:1041C0003480044008B5FFF7D9FF00BF014B10222F
:1041D0001A80704700200540704700BF024A1368EC
:1041E000184410601846704778DEFF1FFEE700BFD6
:1041F000EFF3138070B9EFF310836BB9EFF305821F
:104200005AB94FF48070EFF311822AB1824238BF5D
:10421000104670474FF0FF3070470F2A01D81846FC
:10422000F1E7014BD05CEEE7F0E300E0704700BF40
:1042300010B4114B53F8302092F8804234B101236E
:1042400079B182F880305DF8044B704703EBC0030E
:104250005B681A6851B922F002021A605DF8044BDB
:10426000704782F800315DF8044B704742F003025A
:104270001A605DF8044B7047CC8100001C4B03EBC7
:10428000C0020129526811D004291BD053F8300014
:10429000002380F8803229B1022920D0032922D0BE
:1042A000136070474FF480731360704753F8300009
:1042B0004FF4A27380F880121360136823F0200378
:1042C0001360704753F830104FF4A273012081F847
:1042D00080021360136843F020031360704740F2BC
:1042E0000313136070474FF481731360704700BF6E
:1042F000CC81000021282DE9F0410D4606D8042A82
:1043000004D8DFE802F04B4E51054800BDE8F081CB
:104310004FF410282C4B03EBC0035C68216811F4A8
:10432000E0614AD0294B2A4AC3F89C2104F140425B
:10433000A2F59221DFF8BCC0264F274E2748C3F8CC
:10434000A0C17C29C3F8A471C3F8A861C3F8AC016B
:104350002DD9A2F594237C2B2BD9A2F596237C2B67
:1043600029D9A2F598237C2B2AD9A2F59A227C2A56
:1043700028D81B4A72B6236823F4702343F0807157
:10438000C4F3840041EA0801236042F82050216010
:1043900062B6BDE8F0814FF43028BBE74FF4002847
:1043A000B8E74FF44028B5E74FF42028B2E70D4AAC
:1043B000E0E70D4ADEE70D4ADCE7FFF75FFFB1E714
:1043C0000B4AD7E7BDE8F081CC81000000D8FF1F81
:1043D00011DEFF1FB9DDFF1F8DDDFF1F61DDFF1F38
:1043E00054DFFF1F7CDEFF1FB4DEFF1F04DFFF1F53
:1043F00034DFFF1FE5DDFF1F1A4B03EBC00010B4D5
:10440000436803F14042A2F592217C2924D9A2F508
:1044100094217C290DD9A2F596217C2920D9A2F5D9
:1044200098217C291AD9A2F59A227C2A11D80E4902
:1044300000E00E4972B61A680D4C22F08772C3F381
:10444000840022F4803242F080721A6041F82040E9
:1044500062B65DF8044B70470649EBE70649E9E7A9
:104460000649E7E7CC81000054DFFF1FB4DEFF1FE1
:104470002D4200007CDEFF1F34DFFF1F04DFFF1F23
:1044800030B4054B054C0649002210251A60226005
:1044900008601D6030BC704714D0034004D0034056
:1044A00000D00340212801D8FFF7C2BE704700BFEB
:1044B000212801D8FFF7E2BE704700BF72B60C4B4F
:1044C0000C4A0D491B681268096862B6490102D599
:1044D000322B88BF01320949C3F58C3303F23F13F5
:1044E000A1FB03031B094FF47A7000FB02307047F5
:1044F00018E000E01805002004ED00E0398EE338F4
:1045000038B50546FFF7DAFF04469DB1FFF7D6FF41
:10451000001BB0F57A7F09D3013D0AD0FFF7CEFF2B
:1045200004F57A74001BB0F57A7FF5D201F0E2F958
:10453000ECE738BD38BD00BF2DE9F84F354BDFF84B
:10454000F4A0354ADFF8F0E0DFF8F080DFF8F0C0E3
:10455000324F334E334D344C34483549DFF8E49014
:104560004FF4000BC3F800B04FF0807BC3F800B0ED
:104570004FF0007BC3F800B04FF0806BC3F800B081
:104580004FF0006BC3F800B00023CAF8003048F6C3
:10459000FF7AC2F800A02822C8F80020CCF800203A
:1045A000CEF800203A60326007F5FF272A6006F552
:1045B000FF26226005F5FF25026004F5FF2409208F
:1045C00008600CF5805CC9F8003001F50021C8F8DE
:1045D000FCAF07F5FC6706F2DC7605F5FB6504F534
:1045E000FB6408F6FC78C8F80420CCF80020CEF86C
:1045F000E40F3B60C6F800A02A6022600860FFF765
:10460000CDFC4FF4C870FFF77BFFBDE8F84F00F01A
:1046100005BD00BF08E100E008800340248003409E
:104620002C800340348003403C800340448003409E
:1046300000800340048003401C8003400C80034042
:104640001480034004900340431E032B70B411D820
:1046500072B60A4A52F8230048B10949058831F870
:104660001360446842F82340721B21F8132062B69D
:1046700070BC7047002070BC704700BF74050020FC
:1046800050080020013803280BD872B6074B53F8A6
:10469000203043B100205B680130002BFBD162B6B3
:1046A0007047002070471846F9E700BFC805002092
:1046B000F0B472B61B4D1C4E0123E9189A0011F894
:1046C000011C194F090742F0010405D556F83210B4
:1046D00061B156F83420BAB10133052BEDD162B681
:1046E000124B00221A70F0BC00F020BD0F49104C94
:1046F0000D7807EB43130830013D58600D7047F803
:10470000324062B6F0BC7047084B0A4A197807EB92
:10471000C405083001396860197047F8342062B662
:10472000F0E700BF088300000080FF1FF1050020B4
:1047300088004000C8004000431E032B30B418D846
:104740001B4A400140F01000104472B6194CE25C64
:10475000032A03D8DFE802F022240F1F164A52F87A
:10476000230000B3154A52F82300416042F8231099
:1047700062B630BC704705220D88E25410F0080F75
:104780000CBF8823C82343EA054308310360416016
:1047900062B630BC704708300422EDE70322EBE735
:1047A00008300222E8E742F82310044ADEE700BF9F
:1047B0000080FF1F00060020C8050020D80500204B
:1047C0002DE9F04FDFF800B3DFF800A387B043E036
:1047D000A94D4FEA930805EBC809013CD9F804201C
:1047E00003F00803E4B2A2F1080003F0FF01002B7C
:1047F00040F0FE8055F838301B0C22F8083C002BA6
:1048000000F0ED809D4E22F8061C42F8041C56F87C
:104810002420002A00F04182994E56F8242050604E
:10482000984A46F8240032F814100B4422F8143049
:1048300000F05CFC002800F02982934A934B19F0A9
:10484000080F00F1080008BF1346C9F8040045F836
:10485000383008238BF800309BF80040E4B2610741
:104860001AD58B4B1B78A3B18A4A137803F0FF014A
:1048700023B14B1EDBB2137003B900BE864A137816
:1048800003F0FF012BB14B1EDBB21370002B00F0C5
:10489000C88104238BF8003004F0080303F0FF0202
:1048A000002B00F0C9809AF80030DBB21C098FD1D0
:1048B0009A08714C54F8323004EBC201C3F38303FD
:1048C000013B49680C2B00F28680DFE803F07A7A1E
:1048D0008484848484844184848407000F686F48BE
:1048E0004B68DFF8A8C144F832C0DFF8E4916C4DA2
:1048F000436040F28162BBB200260121934207600F
:10490000C9F800602661A661297000F2E380B3F562
:10491000D06F80F03A82B3F5817F00F00B8300F214
:10492000D981802B00F01E83822B40F0178383886F
:10493000042B00F233835B4F5B4A9B001F441670CD
:1049400056703B789E0740F12D8311700221EEE1F5
:10495000DFF87C91D9F8001041B3544F544B38889C
:104960004F4D1E7895F800C0402834BF02464022C3
:10497000801A80B2BCF1000F388086F0010746F043
:1049800002061F7004EBC6070CBF8823C8238CF0F7
:10499000010C43EA0243796085F800C044F83630E0
:1049A000002800F0B8808818C9F800003B4B1A882E
:1049B000B2F5A06F0FD13F489A780021597002706C
:1049C00009E0364B188842F22103984200F0A78094
:1049D0002E4B44F83230384901230B7039E72A4A0C
:1049E0002A4B19F0080F08BF134645F8383030E756
:1049F00000F09CFB314A324F52F82430002B00F07B
:104A000050815968385D42F8241003F10802C9F852
:104A10000420032805D8DFE800F0022C2926032211
:104A20003A551A8819F0080F0CBF8823C82343EAA7
:104A3000024345F838300CE7E00700F1F580210625
:104A400000F13E81A20706D51E4B1F4A18780221AD
:104A5000C0B218701170E30602D51B4B10221A70F9
:104A600007B0BDE8F08F04223A55DAE705223A553F
:104A7000D7E702223A55D4E70080FF1F74050020D3
:104A8000200500205008002088004000C800400099
:104A9000FC0500208505002004060020E805002014
:104AA00084050020C0200740F405002030050020C8
:104AB000F00500209820074094200740C8050020FA
:104AC00000060020882007408020074090200740F3
:104AD0001C05002042F22102934200F09C8043D842
:104AE000B3F5086F00F01F81B3F5106F40F0368208
:104AF000B54BB64E82781A7006F1800703E008368F
:104B0000BE4200F09381336A1A06F8D5706A0838FD
:104B100000F00CFBF3E7402A7FF446AF43E7AC4BD1
:104B2000DD1D11F8010B03F8010FAB42F9D1A94BC0
:104B30001B68862B00F02581A74BA84D1E7828788E
:104B400046F00201002886F0010604EBC1071E7042
:104B500080F001004FF000060CBF8823C8237E6060
:104B6000287044F8313033E742F22122934240F07A
:104B7000FE81DFF8A8C29A4F9A4B8278DCF80000D9
:104B80003860B44605911A700021049103910E46D5
:104B90000A46914B187840F0020704EBC708C8F8A2
:104BA0000420059A002A40F0DF80882201910292B9
:104BB000DDF80C80029A85F800C042EA080280F015
:104BC000010844F8372083F80080002940F0A180D4
:104BD0003F2E20D90904002648F00202059F1870D4
:104BE000BCF1000F04982F7004EBC2080CBF4FF00B
:104BF000880C4FF0C80C019FC8F804004CEA010172
:104C000003463B4444F832100EB9402F03D1764A94
:104C1000C9F800301680DFF8D481012388F800300D
:104C2000D9E600F0C9FB34E6684B70486A49DFF802
:104C3000D8A11A614FF0020B80F800B06C4C0A70DA
:104C40004FF00D0B1C609C609A61DFF8D4918AF8DC
:104C500000B0DFF8B8C1674F674E684DDFF8C48118
:104C6000DFF8C4B1FF219F244FF0010A89F800103A
:104C7000C3F804808CF80010C3F80CB03A7031709F
:104C80002C7080F800A007B0BDE8F08F5C4B45F8B1
:104C900038001A7801321A70DBE546F82400594EC4
:104CA000BEE53B5D032B65D80FF2040858F823F0EE
:104CB00053480000534800000D4D0000074D000010
:104CC0005149524B80220D2008701A70A2077FF5BF
:104CD000C2AEB9E640F20232934240F03C81838892
:104CE00003F07F03042B00F355814088002840F037
:104CF0005181454A05919B001A448446137843F03C
:104D00000203137040E701233B55A2E500233B5506
:104D10009FE540297FF65EAF4022A1F14006019257
:104D20004FF4800158E7284B394A1B781370B0F8CC
:104D300006C08C4580F04981274B187840F0020767
:104D400004EBC701BCF1400F34BF664640264A6001
:104D5000324404924FEA06480122C6EB0C01CDF81A
:104D60000C804FF0000C05924FF0C8080191CDF86F
:104D700008801DE719F0080F0CBF022303233B55E1
:104D800067E5244B0F211970D6E623494A68002AAB
:104D900000F0F6804788B0F804C001F10C0305E08C
:104DA0000A690C330C31002A00F0EA8033F80C6CED
:104DB000BE42F5D133F80A6C6645F1D13F0A032FA4
:104DC0000CBF11780989B2E7FC0500200080FF1FA5
:104DD0005708002058080020F00500208405002016
:104DE00060080020140600203005002094200740B1
:104DF00088004000982007408C200740842007400E
:104E0000F105002020050020C02007408020074039
:104E1000F4050020850500200C8300001805002003
:104E20008820074034050020880500206E4A6F4E18
:104E30006F4FCDF8149000230395984691461D4678
:104E400004966C49485908B905E03046466800F0B8
:104E50006DF9002EF9D1684A66495059049A002329
:104E60004B51535108B905E03046466800F05EF9F1
:104E7000002EF9D117F808305F49604A0020023B44
:104E80004851505129F8020F032B07D8DFE803F0EF
:104E9000320232024FF0010207F808200435102DCB
:104EA00008F10108CDD1DFF870C1554B039DDDF845
:104EB000149004954FF0000883F8008001266546A1
:104EC000504B3344B70013F8013C05F8043B1B0773
:104ED00015D447F00203013647F00307052E44F8C6
:104EE000338044F83780EBD1049D2A78059282F014
:104EF000010C49E64FF0000107F80810CEE700F07A
:104F0000F5F804EB461300F10802002855D03E489E
:104F10005A6044F8370000F0E9F847F0010304EB69
:104F2000C30200F1080100283ED05160374A44F81E
:104F30003320CEE7838803F07F03042B24DC4088F2
:104F400010BB334A05919B001A448446137823F022
:104F50000203137018E6B3F5A06F0CD02C4A0F2390
:104F6000137058E62B4A022116705670DFE642F2A3
:104F700021329342F2D101204FF0000C059003E65C
:104F800023490F230B7046E6DFF884800F2388F84F
:104F9000003040E61E480F2303703CE61C4F0F23F1
:104FA0003B7038E60221C2E615490B7847F0010252
:104FB000013344F832000B708BE711490B78B700CE
:104FC000013344F837000B70A5E7402934BF0E4683
:104FD0004026330497190120891B039304974FF04F
:104FE000000C0590D5E500BF4E08002020050020EC
:104FF0000006002074050020C8050020D805002008
:10500000F10500200883000088004000C80040002F
:10501000C0200740F4050020C42007402DE9F84FC8
:1050200001F09CFE234C00210846631860500831B3
:10503000882958604FF000021E4BF6D11E49DFF858
:105040009CA0D1F800B0DFF89890DFF89880DFF8E6
:1050500098C01A4F1A4E1B4D1B4C1C484BF4802B0A
:10506000C1F800B0C3F307218AF80010C3F3074169
:1050700089F800101B0EFF2188F800308CF8001012
:105080003970317012494FF0010985F800900A70AB
:10509000104A114982F800904FF070084FF40073E5
:1050A0004FF0100C81F80080236080F800C0BDE84C
:1050B000F88F00BF0080FF1F348004408820074025
:1050C000102007409420074008E100E00821074035
:1050D000002107408420074049E400E09C2007406D
:1050E000B0200740B42007408020074072B60D4A28
:1050F0001168B1FA81F30B2B10D84FF00040D84063
:1051000021EA0001116062B6074803EBC303DB002C
:10511000C2180021C15010465160704762B600208D
:10512000704700BF5CDFFF1F00DAFF1F0D4B0E4A08
:10513000C31AA2FB03131B090B2B0CD80B4A1278C2
:1051400052B972B60A4A4FF00040116820FA03F3D0
:105150001943116062B67047064A1278002AF0D0EF
:10516000FFF7A6BA00DAFF1F398EE338F1050020F9
:105170005CDFFF1FFC05002038B50F4C206878B1BC
:1051800043880288C118013393420D7A02D24380CA
:10519000284638BDFFF7CAFF00232846236038BDE4
:1051A000064B1B782BB10320FFF74EFA2060002836
:1051B000E6D14FF0FF3038BD10060020FC0500207E
:1051C00010B5094C206818B143881844007A10BD06
:1051D000064B1B782BB10320FFF736FA206000281E
:1051E000F2D14FF0FF3010BD10060020FC0500206A
:1051F000044B054A1B6890881BB11A885B88D31A38
:1052000018447047100600205008002010B50B4BC2
:105210001B788BB10A4C206848B1FFF787FF002349
:1052200003202360FFF710FA30B1FFF77FFF032060
:10523000FFF70AFA0028F8D110BD00BFFC050020D6
:10524000100600202DE9F04FDFF8F4A083B0012212
:10525000019183468AF8002039B3DFF8E880354FA2
:10526000019DD8F8001081B3DFF8C8904A88C2F1D8
:105270004004A54238BF2C46101980B208320026DF
:105280002D1B48800A4489F800603CB15C441BF83F
:10529000010B02F8010BA345F9D148883F280BD830
:1052A000254A05211170002DDBD1019800238AF8D1
:1052B000003003B0BDE8F08F40220A800420FFF7E1
:1052C0003BFA0022C8F80020EAE71C4E327832B3DD
:1052D000DFF8609048F6014407E0013C17D03A78C7
:1052E000AAB900F007FB3278CAB10420FFF7CAF967
:1052F0000728F2D84FF001038AF80030FFF7F6FED6
:10530000C8F8000098B90E4B013C1870E7D1012392
:105310004FF0FF3089F8003003B0BDE8F08F002374
:105320004FF0FF308AF8003003B0BDE8F08F01463F
:105330009CE700BF0C06002004060020FC050020AE
:10534000050600200806002000B583B002AB01214D
:1053500003F8010D1846FFF775FF03B05DF804FB75
:10536000F8B5114B1B788BB1104E114D34680127E5
:105370002F7064B10F4A638800271770214623807D
:105380000420FFF7D9F9376000232B70F8BDFFF731
:10539000ADFE084B28B1014604201C70FFF7CCF984
:1053A000F2E71F70F0E700BFFC05002008060020B0
:1053B000050600200406002038B50E4B1B7803F0CC
:1053C000FF0563B90C4C216851B14B880B80042058
:1053D000FFF7B2F9256038BD084B01221A7038BDBD
:1053E000FFF784FE0028F7D00146BDE838400420CE
:1053F000FFF7A2B9050600200806002004060020D9
:10540000F0B4C02928BFC02172B6124B124C1860EC
:10541000002323606360A360E3602361636101276D
:10542000A9B15A0903F01F0654F8225007FA06F6EC
:10543000013335438B4244F82250F2D10022134607
:10544000841802F58272637001338B42F8D162B620
:10545000F0BC7047200600202806002070B472B609
:105460001F4B186820B9586820B30433202500E08A
:1054700000251C4C2278B0FA80F14FF00046CE4057
:105480000132D2B220EA06002270186062B66B1AAE
:1054900003EB83139B0014481449006803F5FB5386
:1054A0001C330124C4540C789442184438BF0A7049
:1054B00070BC7047986820B9D86828B10C33602553
:1054C000D7E708334025D4E7186920B9586928B1CF
:1054D0001433A025CDE710338025CAE762B6E7E78D
:1054E0002806002025060020200600201C0600209B
:1054F00070B4427872B60378012B04D9013B037073
:1055000062B670BC7047501109490A4B51F82040EF
:105510001D78D2434FF0004602F01F0226FA02F235
:1055200014436A1E41F820401A7062B670BC70477E
:105530002806002025060020C36830B413B913E004
:10554000DB688BB1187A9042FAD158685C7A0069AE
:1055500050F82450002DF3D140F824100878013081
:105560000870DB68002BEDD130BC7047437A8B426A
:1055700006D90369002253F8210043F8212070471F
:105580000020704738B5437A8B421AD9036953F823
:105590002140002243F821209CB12378012B0ED911
:1055A000FFF75CFF054628B10430211D4FF48072DF
:1055B000FEF7D2FB2378013B2370284638BD2046F6
:1055C00038BD002038BD00BF4368427A5B7A9A42FA
:1055D0000ED872B60168CA680AB90AE01A46D368DA
:1055E000002BFBD1D060426801230B72137262B6AC
:1055F0007047C860F7E700BF094B1A7830B45AB952
:1056000008480949D02505704FF0804401220C60FC
:1056100010461A7030BC7047002030BC704700BF85
:10562000240600205EE400E008E100E01A4A1B497D
:105630001068F8B540F08070194B10601A68194D69
:105640000C6842F001021A602F6814B915E0646911
:105650009CB1237A002BFAD022682E68136820466A
:1056600098472B68E1889B1B1B099AB28B42A2804A
:1056700088BFE2806469002CEBD10A4A0A4B1268A9
:1056800019880A48D71B3F09BAB28F42028001D954
:105690001A80F8BDF8BD00BFFCED00E01806002040
:1056A000001000E0041000E0260600204006002064
:1056B0002DE9F00772B699B902688AB103790F2B08
:1056C0000ED82D4C218841FA03F5ED0706D503F1DC
:1056D000007303F59063B2EB431F4AD00D4602E01E
:1056E000254C25882946002341FA03F212F00102D5
:1056F00009D00133102BF7D162B60022037102608A
:10570000BDE8F0077047012199400D43258062B63E
:105710001A4D1B4CDFF87490DFF87480194F1A4E45
:10572000DFF870C0D9B20171D5F800A04AF0020AC2
:10573000C5F800A0256803F1007303F590635B01D1
:1057400045F0020A8225C4F800A0C9F8005088F884
:1057500000108CF8001039703170BDE8F00703605C
:105760001A605A609A60DA601A615A619A61DA6165
:10577000704762B6C4E700BF420600204080044084
:105780003C800440188000401F80004000800040A2
:105790001A8000401E80004003790F2B10B410D8EF
:1057A000094A137072B6094B02791988012404FA68
:1057B00002F221EA02021A8062B61022002302716C
:1057C00003605DF8044B70471A80004042060020D9
:1057D000F8B506460F4662B114460025336817F83F
:1057E000011B1B6830469847013C0544F6D128460A
:1057F000F8BD1546FBE700BF00B5064A03681288EE
:105800005B6883B001A9ADF804200222984703B079
:105810005DF804FBDC820000F0B586468BB0002A00
:1058200030D0012A08BF0A2239B3212400E0FCB29B
:10583000B1FBF2F502FB1511C9B2092994BF303151
:105840003731CEB229460AAD2544671E05F8246CCF
:105850000029ECD133B1013CE4B20AAB23442D2240
:1058600003F8242CDEF8003001A95B68704621445F
:10587000C4F1220298470BB0F0BD30228DF82520EC
:105880002124E7E70368C9B21B6898470BB0F0BD55
:105890000029BABF49422D2300230A22FFF7BCBFCB
:1058A00008B5FBF7FBF8FBF731F900F023F8FAE74E
:1058B000FFF79EBCFFF760BCFFF782BCFFF750BD4F
:1058C000FFF7A4BC0846FFF73FBD00BF08461146DE
:1058D000FFF7B8BC704700BF044B054A1A604FF48D
:1058E0007A71002299601A711A7370474806002075
:1058F000E882000010B5154C237803B110BD0123D8
:105900002370FFF775FC58B900F0D0FA70B900F0B9
:105910007BFE88B901F04AF9A0B90023237010BDBD
:10592000FFF7D8FF00F0C2FA0028F0D001F0D2FA59
:1059300000F06AFE0028EDD001F058FB01F036F9C6
:105940000028EAD001F0DEFBE7E700BF58060020A0
:1059500010B4002300E00133B0FBF2F402FB1400AA
:10596000092894BF30303730C0B2C8542046002CCC
:10597000F1D1CA18547043B12246885CCC5C8C5477
:10598000C8540132013B9A42F7DB08465DF8044BEC
:10599000704700BF2DE9F84F204B1B6883460BB1C1
:1059A00001221A70DFF888801D4D98F800401D4FC5
:1059B0001D4E01343F2C8ABF4FF000095FFA84F975
:1059C0004C46AA462B78A34215D1FEF711FC40287D
:1059D0001FDC33791B06F5D59AF8003001333F2BD5
:1059E00086BF00221346DAB2FB5CDBB2F3712A7089
:1059F0002B78A342E9D00D490B4B5FFA8BFB07F8DC
:105A000004B00120BC22087088F80090DA70BDE86C
:105A1000F88FFF28D6DDFFF76DFFD3E7EC060020F7
:105A2000E90600206406002000A00640E8060020E9
:105A3000F00600202C4B2D4AD3F800C02C492DE94C
:105A4000F0074CF4806CC3F800C02A4F2A4E2B4D4F
:105A50002B4C127800233B7033702B7023700B702B
:105A6000002A3BD0152A2CD0264B1B78012B30D096
:105A7000052B03D1244B4FF451721A60234B244D54
:105A80002449C0F3443AC0F3471904224FF00208F6
:105A90003C27402600F01F004FF0880C83F800A040
:105AA0004FF4005483F8019098729A7083F8138031
:105AB0005A7583F810C0DF702E700C60BDE8F007D7
:105AC0007047154B40F213321A600E4B1B78012BB6
:105AD000CED1124B4FF451721A60CFE7104B40F207
